{"abi":[{"type":"constructor","inputs":[{"name":"_usdc","type":"address","internalType":"address"}],"stateMutability":"nonpayable"},{"type":"function","name":"campaignOf","inputs":[{"name":"","type":"address","internalType":"address"}],"outputs":[{"name":"","type":"address","internalType":"address"}],"stateMutability":"view"},{"type":"function","name":"createCampaign","inputs":[{"name":"targetAmount","type":"uint256","internalType":"uint256"},{"name":"deadline","type":"uint256","internalType":"uint256"},{"name":"metadataCID","type":"string","internalType":"string"}],"outputs":[{"name":"","type":"address","internalType":"address"}],"stateMutability":"nonpayable"},{"type":"function","name":"usdc","inputs":[],"outputs":[{"name":"","type":"address","internalType":"address"}],"stateMutability":"view"},{"type":"event","name":"CampaignCreated","inputs":[{"name":"owner","type":"address","indexed":true,"internalType":"address"},{"name":"campaign","type":"address","indexed":true,"internalType":"address"},{"name":"targetAmount","type":"uint256","indexed":false,"internalType":"uint256"},{"name":"deadline","type":"uint256","indexed":false,"internalType":"uint256"},{"name":"metadataCID","type":"string","indexed":false,"internalType":"string"}],"anonymous":false}],"bytecode":{"object":"0x60a060405234801561000f575f5ffd5b5060405161175f38038061175f833981810160405281019061003191906100c9565b8073ffffffffffffffffffffffffffffffffffffffff1660808173ffffffffffffffffffffffffffffffffffffffff1681525050506100f4565b5f5ffd5b5f73ffffffffffffffffffffffffffffffffffffffff82169050919050565b5f6100988261006f565b9050919050565b6100a88161008e565b81146100b2575f5ffd5b50565b5f815190506100c38161009f565b92915050565b5f602082840312156100de576100dd61006b565b5b5f6100eb848285016100b5565b91505092915050565b60805161164d6101125f395f818160c301526101b3015261164d5ff3fe608060405234801561000f575f5ffd5b506004361061003f575f3560e01c80633e413bee1461004357806391cbf44e14610061578063a36f259d14610091575b5f5ffd5b61004b6100c1565b6040516100589190610375565b60405180910390f35b61007b6004803603810190610076919061042a565b6100e5565b6040516100889190610375565b60405180910390f35b6100ab60048036038101906100a691906104c5565b6102fa565b6040516100b89190610375565b60405180910390f35b7f000000000000000000000000000000000000000000000000000000000000000081565b5f5f73ffffffffffffffffffffffffffffffffffffffff165f5f3373ffffffffffffffffffffffffffffffffffffffff1673ffffffffffffffffffffffffffffffffffffffff1681526020019081526020015f205f9054906101000a900473ffffffffffffffffffffffffffffffffffffffff1673ffffffffffffffffffffffffffffffffffffffff16146101af576040517f08c379a00000000000000000000000000000000000000000000000000000000081526004016101a69061054a565b60405180910390fd5b5f337f000000000000000000000000000000000000000000000000000000000000000087876040516101e090610329565b6101ed9493929190610577565b604051809103905ff080158015610206573d5f5f3e3d5ffd5b509050805f5f3373ffffffffffffffffffffffffffffffffffffffff1673ffffffffffffffffffffffffffffffffffffffff1681526020019081526020015f205f6101000a81548173ffffffffffffffffffffffffffffffffffffffff021916908373ffffffffffffffffffffffffffffffffffffffff1602179055508073ffffffffffffffffffffffffffffffffffffffff163373ffffffffffffffffffffffffffffffffffffffff167fbe12cd61db77adb20e095dd401ab22a9dbfa8f24609e60d43a7b365bc88eb610888888886040516102e69493929190610604565b60405180910390a380915050949350505050565b5f602052805f5260405f205f915054906101000a900473ffffffffffffffffffffffffffffffffffffffff1681565b610fd58061064383390190565b5f73ffffffffffffffffffffffffffffffffffffffff82169050919050565b5f61035f82610336565b9050919050565b61036f81610355565b82525050565b5f6020820190506103885f830184610366565b92915050565b5f5ffd5b5f5ffd5b5f819050919050565b6103a881610396565b81146103b2575f5ffd5b50565b5f813590506103c38161039f565b92915050565b5f5ffd5b5f5ffd5b5f5ffd5b5f5f83601f8401126103ea576103e96103c9565b5b8235905067ffffffffffffffff811115610407576104066103cd565b5b602083019150836001820283011115610423576104226103d1565b5b9250929050565b5f5f5f5f606085870312156104425761044161038e565b5b5f61044f878288016103b5565b9450506020610460878288016103b5565b935050604085013567ffffffffffffffff81111561048157610480610392565b5b61048d878288016103d5565b925092505092959194509250565b6104a481610355565b81146104ae575f5ffd5b50565b5f813590506104bf8161049b565b92915050565b5f602082840312156104da576104d961038e565b5b5f6104e7848285016104b1565b91505092915050565b5f82825260208201905092915050565b7f416c7265616479206578697374730000000000000000000000000000000000005f82015250565b5f610534600e836104f0565b915061053f82610500565b602082019050919050565b5f6020820190508181035f83015261056181610528565b9050919050565b61057181610396565b82525050565b5f60808201905061058a5f830187610366565b6105976020830186610366565b6105a46040830185610568565b6105b16060830184610568565b95945050505050565b828183375f83830152505050565b5f601f19601f8301169050919050565b5f6105e383856104f0565b93506105f08385846105ba565b6105f9836105c8565b840190509392505050565b5f6060820190506106175f830187610568565b6106246020830186610568565b81810360408301526106378184866105d8565b90509594505050505056fe610100604052348015610010575f5ffd5b50604051610fd5380380610fd58339818101604052810190610032919061021e565b600161005061004561015b60201b60201c565b61018460201b60201c565b5f0181905550428111610098576040517f08c379a000000000000000000000000000000000000000000000000000000000815260040161008f906102dc565b60405180910390fd5b5f82116100da576040517f08c379a00000000000000000000000000000000000000000000000000000000081526004016100d190610344565b60405180910390fd5b8373ffffffffffffffffffffffffffffffffffffffff1660a08173ffffffffffffffffffffffffffffffffffffffff16815250508273ffffffffffffffffffffffffffffffffffffffff1660808173ffffffffffffffffffffffffffffffffffffffff16815250508160c081815250508060e0818152505050505050610362565b5f7f9b779b17422d0df92223018b32b4d1fa46e071723d6817e2486d003becc55f005f1b905090565b5f819050919050565b5f5ffd5b5f73ffffffffffffffffffffffffffffffffffffffff82169050919050565b5f6101ba82610191565b9050919050565b6101ca816101b0565b81146101d4575f5ffd5b50565b5f815190506101e5816101c1565b92915050565b5f819050919050565b6101fd816101eb565b8114610207575f5ffd5b50565b5f81519050610218816101f4565b92915050565b5f5f5f5f608085870312156102365761023561018d565b5b5f610243878288016101d7565b9450506020610254878288016101d7565b93505060406102658782880161020a565b92505060606102768782880161020a565b91505092959194509250565b5f82825260208201905092915050565b7f496e76616c696420646561646c696e65000000000000000000000000000000005f82015250565b5f6102c6601083610282565b91506102d182610292565b602082019050919050565b5f6020820190508181035f8301526102f3816102ba565b9050919050565b7f496e76616c6964207461726765740000000000000000000000000000000000005f82015250565b5f61032e600e83610282565b9150610339826102fa565b602082019050919050565b5f6020820190508181035f83015261035b81610322565b9050919050565b60805160a05160c05160e051610c166103bf5f395f8181610166015281816101b6015261043901525f6103f601525f818161032701526103d201525f818161018a015281816102820152818161034901526104e30152610c165ff3fe608060405234801561000f575f5ffd5b5060043610610086575f3560e01c8063953b8fb811610059578063953b8fb8146100ee578063b3f05b971461010c578063c5c4744c1461012a578063f14faf6f1461014857610086565b806329dcb0cf1461008a5780633e413bee146100a85780634bb278f3146100c65780638da5cb5b146100d0575b5f5ffd5b610092610164565b60405161009f91906107f9565b60405180910390f35b6100b0610188565b6040516100bd919061088c565b60405180910390f35b6100ce6101ac565b005b6100d86103d0565b6040516100e591906108c5565b60405180910390f35b6100f66103f4565b60405161010391906107f9565b60405180910390f35b610114610418565b60405161012191906108f8565b60405180910390f35b61013261042a565b60405161013f91906107f9565b60405180910390f35b610162600480360381019061015d919061093f565b61042f565b005b7f000000000000000000000000000000000000000000000000000000000000000081565b7f000000000000000000000000000000000000000000000000000000000000000081565b6101b461059b565b7f0000000000000000000000000000000000000000000000000000000000000000421015610217576040517f08c379a000000000000000000000000000000000000000000000000000000000815260040161020e906109c4565b60405180910390fd5b60015f9054906101000a900460ff1615610266576040517f08c379a000000000000000000000000000000000000000000000000000000000815260040161025d90610a2c565b60405180910390fd5b6001805f6101000a81548160ff0219169083151502179055505f7f000000000000000000000000000000000000000000000000000000000000000073ffffffffffffffffffffffffffffffffffffffff166370a08231306040518263ffffffff1660e01b81526004016102d991906108c5565b602060405180830381865afa1580156102f4573d5f5f3e3d5ffd5b505050506040513d601f19601f820116820180604052508101906103189190610a5e565b90505f81111561038e5761038d7f0000000000000000000000000000000000000000000000000000000000000000827f000000000000000000000000000000000000000000000000000000000000000073ffffffffffffffffffffffffffffffffffffffff166105bd9092919063ffffffff16565b5b7f839cf22e1ba87ce2f5b9bbf46cf0175a09eed52febdfaac8852478e68203c763816040516103bd91906107f9565b60405180910390a1506103ce610610565b565b7f000000000000000000000000000000000000000000000000000000000000000081565b7f000000000000000000000000000000000000000000000000000000000000000081565b60015f9054906101000a900460ff1681565b5f5481565b61043761059b565b7f00000000000000000000000000000000000000000000000000000000000000004210610499576040517f08c379a000000000000000000000000000000000000000000000000000000000815260040161049090610ad3565b60405180910390fd5b5f81116104db576040517f08c379a00000000000000000000000000000000000000000000000000000000081526004016104d290610b3b565b60405180910390fd5b6105283330837f000000000000000000000000000000000000000000000000000000000000000073ffffffffffffffffffffffffffffffffffffffff1661062a909392919063ffffffff16565b805f5f8282546105389190610b86565b925050819055503373ffffffffffffffffffffffffffffffffffffffff167f106aac375bbcf013d1e52338bbf9e740009a1a3a6869f8daa1b72aa1620f5fec825f54604051610588929190610bb9565b60405180910390a2610598610610565b50565b6105a361067f565b60026105b56105b06106c0565b6106e9565b5f0181905550565b6105ca83838360016106f2565b61060b57826040517f5274afe700000000000000000000000000000000000000000000000000000000815260040161060291906108c5565b60405180910390fd5b505050565b600161062261061d6106c0565b6106e9565b5f0181905550565b610638848484846001610754565b61067957836040517f5274afe700000000000000000000000000000000000000000000000000000000815260040161067091906108c5565b60405180910390fd5b50505050565b6106876107c5565b156106be576040517f3ee5aeb500000000000000000000000000000000000000000000000000000000815260040160405180910390fd5b565b5f7f9b779b17422d0df92223018b32b4d1fa46e071723d6817e2486d003becc55f005f1b905090565b5f819050919050565b5f5f63a9059cbb60e01b9050604051815f525f1960601c86166004528460245260205f60445f5f8b5af1925060015f5114831661074657838315161561073a573d5f823e3d81fd5b5f873b113d1516831692505b806040525050949350505050565b5f5f6323b872dd60e01b9050604051815f525f1960601c87166004525f1960601c86166024528460445260205f60645f5f8c5af1925060015f511483166107b25783831516156107a6573d5f823e3d81fd5b5f883b113d1516831692505b806040525f606052505095945050505050565b5f60026107d86107d36106c0565b6106e9565b5f015414905090565b5f819050919050565b6107f3816107e1565b82525050565b5f60208201905061080c5f8301846107ea565b92915050565b5f73ffffffffffffffffffffffffffffffffffffffff82169050919050565b5f819050919050565b5f61085461084f61084a84610812565b610831565b610812565b9050919050565b5f6108658261083a565b9050919050565b5f6108768261085b565b9050919050565b6108868161086c565b82525050565b5f60208201905061089f5f83018461087d565b92915050565b5f6108af82610812565b9050919050565b6108bf816108a5565b82525050565b5f6020820190506108d85f8301846108b6565b92915050565b5f8115159050919050565b6108f2816108de565b82525050565b5f60208201905061090b5f8301846108e9565b92915050565b5f5ffd5b61091e816107e1565b8114610928575f5ffd5b50565b5f8135905061093981610915565b92915050565b5f6020828403121561095457610953610911565b5b5f6109618482850161092b565b91505092915050565b5f82825260208201905092915050565b7f4e6f7420656e64656400000000000000000000000000000000000000000000005f82015250565b5f6109ae60098361096a565b91506109b98261097a565b602082019050919050565b5f6020820190508181035f8301526109db816109a2565b9050919050565b7f416c72656164792066696e616c697a65640000000000000000000000000000005f82015250565b5f610a1660118361096a565b9150610a21826109e2565b602082019050919050565b5f6020820190508181035f830152610a4381610a0a565b9050919050565b5f81519050610a5881610915565b92915050565b5f60208284031215610a7357610a72610911565b5b5f610a8084828501610a4a565b91505092915050565b7f43616d706169676e20656e6465640000000000000000000000000000000000005f82015250565b5f610abd600e8361096a565b9150610ac882610a89565b602082019050919050565b5f6020820190508181035f830152610aea81610ab1565b9050919050565b7f5a65726f20616d6f756e740000000000000000000000000000000000000000005f82015250565b5f610b25600b8361096a565b9150610b3082610af1565b602082019050919050565b5f6020820190508181035f830152610b5281610b19565b9050919050565b7f4e487b71000000000000000000000000000000000000000000000000000000005f52601160045260245ffd5b5f610b90826107e1565b9150610b9b836107e1565b9250828201905080821115610bb357610bb2610b59565b5b92915050565b5f604082019050610bcc5f8301856107ea565b610bd960208301846107ea565b939250505056fea2646970667358221220f9d04be0597eb2e48b2b9723097afbc0ae49f13f216d311b6bac0374236f05de64736f6c634300081e0033a2646970667358221220787445b27a61ad79963f271a28d9ceb81312ee174cc518c907917914cd2d33fc64736f6c634300081e0033","linkReferences":{}},"methodIdentifiers":{"campaignOf(address)":"a36f259d","createCampaign(uint256,uint256,string)":"91cbf44e","usdc()":"3e413bee"},"id":9}